:020000020000FC
:080000000C941A000C943F005F
:100030000C944B00F8940FE50DBF04E00EBFC0E632
:10004000D0E0E0E6F0E000EF04BB00B70B7F00BFBC
:100050000FE005BB0FEF0ABB0BB700640BBF05B782
:100060000C7F05BF00E000BD02E009B986E880BD55
:1000700088E28AB980E08BB978940C945100F894A6
:100080000E945300A02DD0960A2E0FE005BB0992C6
:100090000BBA78941895F894EC1701910CB97894F0
:1000A00018950C94510010E020E03FE7032F05BBAA
:1000B000000003B344E0079560F44A954030D9F757
:1000C00023952395239523950894379513951430FC
:0A00D00069F7042E020E0A94089549
:00000001FF
