:020000020000FC
:100000000C9404000C942900F8940FE50DBF04E053
:100010000EBFC0E6D0E0E0E6F0E000EF04BB00B7C2
:100020000B7F00BF0FE005BB0FEF0ABB0BB70064EF
:100030000BBF05B70C7F05BF00E000BD0BE009B9A1
:1000400086E880BD88E08AB980E08BB978940C940A
:100050003900F8940E9455000E9455000E943B0010
:10006000A02DD0960A2E0FE005BB09920BBA78940A
:1000700018950C94390010E020E03FE7032F05BBF2
:10008000000003B344E0079560F44A954030D9F787
:10009000239523952395239508943795139514302C
:1000A00069F7042E020E0A9408951FEF0FEF0A95C8
:0E00B0000030E9F71A951030C9F70895089549
:00000001FF
