:020000020000FC
:100000000C940200F8940FE50DBF04E00EBFC0E6AB
:10001000D0E000EF0ABB00B70B7F00BF0FE00BBBC7
:100020000FE707BB00EC01BB00E402BB00E000BD32
:100030000FE509B986E880BD88E08AB980E08BB910
:100040000FE004BB0E94F00078940C944000A89547
:100050000E94D40009B3006F0F3FC9F30E946A00E9
:10006000A02DD0960A2E0E9424010FE00BBB09920E
:10007000502D5F3321F40E94E2000E940A0108958E
:10008000A8950E9427000C944000502D513081F01B
:10009000523081F0533081F0543081F0553081F08E
:1000A000563081F0573081F0583081F0593081F06E
:1000B00066E008956BE508956FE4089566E6089597
:1000C0006DE608956DE7089567E008956FE7089578
:1000D0006FE6089510E020E03FE7032F0BBB000020
:1000E00009B344E0079560F44A954030D9F7239569
:1000F000239523952395089437951395143069F724
:10010000042E020E0A94002D0030F1F00130F9F0B7
:10011000023001F1033009F1043011F1053019F119
:10012000063021F1073029F1083031F1093039F179
:100130000A3041F10B3049F10C3051F10D3059F1D9
:100140000E3061F10F3069F10FE0002E08950EE0DE
:10015000002E089500E0002E08950DE0002E089571
:100160000CE0002E089509E0002E089508E0002E0E
:10017000089507E0002E08950BE0002E089506E094
:10018000002E089505E0002E089504E0002E089545
:100190000AE0002E089503E0002E089502E0002EEC
:1001A000089501E0002E089520E11FEF0FEFA895BC
:1001B0000A950030E1F71A951030C1F72A952030E2
:1001C000A1F70895E0E6F0E0A8955D9BFDCF0191D1
:1001D0000CB9FD17C9F7EC17B9F7C0E6D0E00895E0
:1001E00000E402BB000000E005BB00E802BB06B370
:1001F0000F670F3FA9F300E402BB0FEF07BB0FE04F
:1002000008BB00E005BB00E002BB00E402BB0FE757
:1002100007BB089500E402BB000000E005BB00E856
:1002200002BB06B30F670F3FA9F300E402BB0FEF59
:1002300007BB01E008BB00E005BB00E002BB00E437
:1002400002BB0FE707BB089500E402BB000000E01B
:1002500005BB00E802BB06B30F670F3FA9F300E43C
:1002600002BB0FEF07BB002D08BB08E005BB00E099
:0C02700002BB00E402BB0FE707BB0895CF
:00000001FF
