:020000020000FC
:100000000C940200F8940FE50DBF04E00EBFC0E6AB
:10001000D0E000EF0ABB00B70B7F00BF0FE00BBBC7
:100020000FE707BB00EC01BB00E402BB00E000BD32
:100030000BE009B986E880BD80E08AB980E08BB921
:100040000FE004BB0E94A20078940C944200A89593
:1000500009B3006F0F3FD9F30E9486000E9486000B
:100060000E946C00A02DD0960A2E0E94BC000FE0CA
:100070000BBB09920AE00883502D5F3301F40E9404
:1000800090000895A8950E9427000C944200502DDE
:10009000513081F0523081F0533081F0543081F092
:1000A000553081F0563081F0573081F0583081F072
:1000B000593081F066E008956BE508956FE4089586
:1000C00066E608956DE608956DE7089567E0089582
:1000D0006FE708956FE6089510E020E03FE7032FF3
:1000E0000BBB000009B344E0079560F44A9540302B
:1000F000D9F7239523952395239508943795139540
:10010000143069F7042E020E0A9408951FEF0FEFC2
:10011000A8950A950030E1F71A951030C1F70895B7
:10012000E0E6F0E008E00AB9A8955D9BFDCF0191FB
:100130000CB9FD17C9F7EC17B9F7C0E6D0E000E03D
:100140000AB9089500E402BB000000E005BB00E826
:1001500002BB06B30F670F3FA9F300E402BB0FEF2A
:1001600007BB0FE008BB00E005BB00E002BB00E4FA
:1001700002BB0FE707BB089500E402BB000000E0EC
:1001800005BB00E802BB06B30F670F3FA9F300E40D
:1001900002BB0FEF07BB002D08BB08E005BB00E06A
:0C01A00002BB00E402BB0FE707BB0895A0
:00000001FF
