:020000020000FC
:100000000C9404000C942500F8940FE50DBF04E057
:100010000EBF00EF04BB00B70BEF00BF0FE005BB46
:100020000FEF0ABB0BB700640BBF05B70C7F05BF12
:1000300000E000BD02E009B986E880BD88E28AB927
:1000400080E08BB978940C943400F8940E943B00C3
:10005000A02DD0960A2E0FE005BB0CB80BBA0AB73C
:100060000F7B0ABF789418950C9434000FEF015061
:100070000030E9F7089510E020E03FE7032F05BBCB
:10008000000003B344E0079550F44A95E1F7239547
:1000900023952395239537951395143079F7042EDE
:0600A000020E0A9408950F
:00000001FF
