:020000020000FC
:100000000C940200F8940FE50DBF04E00EBFC0E6AB
:10001000D0E0E0E6F0E000EF0ABB00B70B7F00BFE6
:100020000FE00BBB0FEF07BB00E000BD0BE009B911
:1000300086E880BD88E08AB980E08BB978940C941A
:10004000330009B3006F0F3FE1F30E9451000E949B
:1000500051000E943700A02DD0960A2E0FE00BBB56
:10006000099208BA08950E9421000C94330010E010
:1000700020E03FE7032F0BBB000009B344E00795E6
:1000800060F44A954030D9F723952395239523951D
:10009000089437951395143069F7042E020E0A94CC
:1000A00008951FEF0FEF0A950030E9F71A95103009
:0600B000C9F70895089550
:00000001FF
