:020000020000FC
:100000000C940200F8940FE50DBF04E00EBFC0E6AB
:10001000D0E000EF0ABB00B70B7F00BF0FE00BBBC7
:100020000FE707BB00EC01BB00E402BB00E000BD32
:100030000BE009B986E880BD88E08AB980E08BB919
:100040000FE004BB0E94980078940C943F0009B321
:10005000006F0F3FE1F30E9482000E9482000E9425
:100060006800A02DD0960A2E0E94B2000FE00BBBB4
:100070000992502D5F3301F40E948B0008950E9475
:1000800027000C943F00502D513081F0523081F008
:10009000533081F0543081F0553081F0563081F08A
:1000A000573081F0583081F0593081F066E0089582
:1000B0006BE508956FE4089566E608956DE608958A
:1000C0006DE7089567E008956FE708956FE6089576
:1000D00010E020E03FE7032F0BBB000009B344E032
:1000E000079560F44A954030D9F7239523952395D9
:1000F0002395089437951395143069F7042E020E52
:100100000A9408951FEF0FEF0A950030E9F71A954A
:100110001030C9F70895E0E6F0E05D9BFECF019155
:100120000CB9FD17D1F7EC17C1F7C0E6D0E0089580
:1001300000E402BB000000E005BB00E802BB06B320
:100140000F670F3FA9F300E402BB0FEF07BB0FE0FF
:1001500008BB00E005BB00E002BB00E402BB0FE708
:1001600007BB089500E402BB000000E005BB00E807
:1001700002BB06B30F670F3FA9F300E402BB0FEF0A
:1001800007BB002D08BB08E005BB00E002BB00E494
:0801900002BB0FE707BB089555
:00000001FF
