:020000020000FC
:100000000C940200F8940FE50DBF04E00EBFC0E6AB
:10001000D0E000EF0ABB00B70B7F00BF0FE00BBBC7
:100020000FE707BB00EC01BB00E402BB00E000BD32
:1000300009E109B98EEA80BD88E08AB980E08BB910
:100040000FE004BB0E94F9000E94310178940C94E7
:100050004000A8950E94D40009B3006F0F3FC9F378
:10006000A8950E946A000E9478010FE00BBB0992DC
:10007000502D5A3021F40E94E8000E945E0108953C
:10008000A8950E9429000C944000502D513381F016
:10009000523381F0533381F0543381F0553381F082
:1000A000563381F0573381F0583381F0593381F062
:1000B00066E008956BE508956FE4089566E6089597
:1000C0006DE608956DE7089567E008956FE7089578
:1000D0006FE6089510E020E03FE7032F0BBB000020
:1000E00009B344E0079560F44A954030D9F7239569
:1000F000239523952395089437951395143069F724
:10010000042E020E0A94002D0030F1F00130F9F0B7
:10011000023001F1033009F1043011F1053019F119
:10012000063021F1073029F1083031F1093039F179
:100130000A3041F10B3049F10C3051F10D3059F1D9
:100140000E3061F10F3069F10AE0002E089503E5E9
:10015000002E089500E3002E08950DE4002E08956A
:100160000DE6002E089509E3002E089508E3002E01
:10017000089507E3002E089504E4002E089506E391
:10018000002E089505E3002E089504E3002E08953F
:1001900005E5002E089503E3002E089502E3002EE6
:1001A000089501E3002E089521E010EE0FEFA895C9
:1001B0000A950030E1F71A951030C1F72A952030E2
:1001C000A1F708950FEFA8950A950030E1F708957B
:1001D000E0E6F0E0A8955D9BFDCFA89500810CB905
:1001E0000FEF0193FD17B1F7EC17A1F7C0E6D0E0D0
:1001F000089500E402BB0FEF07BB00E208BB00E07C
:1002000005BB00E002BB0FE707BB00E402BB000038
:1002100000E005BB00E802BB06B3102F00E402BB00
:10022000000000E005BB00E802BB06B3012F0F672A
:100230000F3F59F300E402BB0FEF07BB00E208BB1E
:1002400000E005BB00E002BB00E402BB00E008BB2D
:1002500000E005BB00E002BB00E402BB0FE707BB08
:10026000089500E402BB000000E005BB00E802BB0B
:1002700006B3102F00E402BB000000E005BB00E85D
:1002800002BB06B3012F0F670F3F59F300E402BB17
:100290000FEF07BB00E008BB00E005BB00E002BBBE
:1002A00000E402BB000000EF08BB00E005BB00E07B
:1002B00002BB00E402BB0FE707BB08950E94E20007
:1002C00000E402BB0FEF07BB00E008BB00E005BB8A
:1002D00000E002BB00E402BB000000E108BB00E05C
:1002E00005BB00E002BB00E402BB0FE707BB0895BB
:1002F0000E94E20000E402BB0FEF07BB002D08BB29
:1003000008E005BB00E002BB00E402BB0000000007
:10031000002D029508BB08E005BB00E002BB00E42D
:0803200002BB0FE707BB0895C3
:00000001FF
