:020000020000FC
:100000000C9404000C941D00F8940FE50DBF04E05F
:100010000EBF00EF04BB00B70BEF00BF0FE005BB46
:100020000FEF0ABB0FEF07BB0BB700640BBF05B7A1
:100030000C7F05BF78940C943400F8940E943B0028
:10004000A02DD0960A2E0FE005BB01E008BB04E00E
:1000500008BB00E00BBB0E94360001E008BB00E0DB
:1000600008BB0BBA789418950C9434000FEF01502C
:100070000030E9F7089510E020E03FE7032F05BBCB
:10008000000003B344E0079550F44A95E1F7239547
:1000900023952395239537951395143079F7042EDE
:0600A000020E0A9408950F
:00000001FF
