:020000020000FC
:100000000C940200F8940FE50DBF04E00EBFC0E6AB
:10001000D0E000EF0ABB00B70B7F00BF0FE00BBBC7
:100020000FEF07BB00E000BD0BE009B986E880BD1B
:1000300088E08AB980E08BB90FEF04BB0EE005BB06
:1000400078940C943C0009B3006F0F3FE1F30E94D9
:100050007F000E947F000E9465000E94400068BBF4
:10006000A02DD0960A2E0FE00BBB0992502D5F33C6
:1000700001F40E94880008950E9423000C943C0023
:10008000502D513081F0523081F0533081F0543096
:1000900081F0553081F0563081F0573081F0583082
:1000A00081F0593081F066E008956BE508956FE4C2
:1000B000089566E608956DE608956DE7089567E092
:1000C00008956FE708956FE6089510E020E03FE798
:1000D000032F0BBB000009B344E0079560F44A9579
:1000E0004030D9F723952395239523950894379588
:1000F0001395143069F7042E020E0A9408951FEF29
:100100000FEF0A950030E9F71A951030C9F70895F6
:100110000FE708BB00E005BBE0E6F0E05D9BFECF2B
:1001200001910CB9FD17D1F7EC17C1F7C0E6D0E08B
:02013000089530
:00000001FF
